:020000040800F2
:10000000180900204D26000835130008E1120008E9
:10001000251300080513000865130008752600085D
:100020007526000875260008752600085513000877
:10003000151300087526000845130008C32300089F
:10004000F5150008C514000825150008F51400086A
:1000500075140008D5140008F312000815140008E0
:10006000351400084514000855140008A5130008AD
:10007000B5130008C5130008D5130008E5130008E0
:10008000F51300080514000875130008C5150008CD
:10009000D51500088513000895130008651400089D
:1000A00035150008651500085515000845150008A8
:1000B00075150008851500089515000895140008A9
:1000C00085140008B5140008A514000805150008DB
:1000D0001515000877260008A5150008B5150008B5
:1000E00025140008E5140008E5150008DFF8140DD4
:1000F00070B5DFF8144DA0610B20A07782B001200D
:100100002077052060774FF494702118DFF8FC0CFD
:1001100000F097FF082001F045F884F8200009203E
:1001200001F040F8608401F0B7F8032803D0002004
:1001300084F820005BE094F8200001460629F6DAF6
:10014000628CC04380B28242F1D1052942D1DFF8EE
:100150009C5E4FF480162E60012001F0B2FB002857
:10016000FAD11020286040F2417000F02AFAB42839
:100170003DD1002303226946172000F0F7F90DF165
:10018000010000F064FF40F25F1108422FD182208D
:100190008DF804002E60012001F093FB0028FAD1B5
:1001A0000022012101A801F0DCFB4FF49470002231
:1001B0000321204401F0D5FB1020286040F67B206D
:1001C0002061032084F8200000F078FD01F03EF863
:1001D00002B070BD032918BF042904D140F67B206A
:1001E000206102B070BDC921DFA000F039FF00F02E
:1001F00015F802B070BD10B5DFF80C4C206900B1E5
:10020000401E206100F028F894F8200094F8242083
:10021000904218BF84F82400012010BD00B581B0C1
:100220000121022001F026FB0121062001F022FB22
:10023000DFF8B81D102008600121DFF8CC0B016148
:10024000002180F8201001B0C168491CC1605DF830
:1002500004EB00F033BD0000F0B5DFF8AC4B94F8D0
:100260002000042885B000F25A81DFE810F0050074
:10027000180029009400FA00E07D002800F0548165
:100280002069002840F050810021062001F0F2FA98
:100290001420206105B0012084F82000F0BD206901
:1002A000002840F04181012001F00BFB002840F0C4
:1002B000DE801420206105B0022084F82000F0BD0B
:1002C000E07D002800F0D38001A940F2BC6000F07E
:1002D000C3FE01AF002078801D20DFF8105D8DF88F
:1002E00000004FF480162E60012001F0EAFA002889
:1002F000FAD100220121684601F033FB01220421DA
:1003000001A801F02EFB10202860B878C0F302117C
:10031000C0F3420060750729B8BF2175F8781D2821
:1003200040F0A58001A94FF4D76000F095FE0020B1
:1003300078801D208DF800002E60012001F0C1FAA8
:100340000028FAD100220121684601F00AFB0122AF
:10035000042101A801F005FB10202860B878C0F343
:100360000211C0F3420060750729B8BF2175F87803
:1003700000287CD004F1180000F056F9002876D04F
:1003800040F2417000F01DF9B42870D10021022024
:1003900001F070FAA0E0206900281CBFE07D002871
:1003A00065D0002001F08DFA002800F0BD8000F03B
:1003B0002FFD94F82000032840F0B680C0208DF86F
:1003C00001000121684600F027FEDFF8205C4FF4B1
:1003D00080162E60012001F074FA0028FAD1002264
:1003E00001210DF1010001F0BCFA01220121684652
:1003F00001F0B7FA102028609DF80000C0F3021049
:10040000022834D10FF6044000788DF801008420D2
:100410008DF800002E60012001F053FA0028FAD177
:1004200000220121684601F09CFA002201210DF111
:10043000010001F096FA102028600521052084F8BB
:1004400020004FF6FA706084082000F0BCFE618C3A
:10045000092000F0B8FE652000F0BCFE4FF4867164
:100460005FE0206900281CBFE07D002803D1FFF772
:10047000D5FE05B0F0BD002001F023FA002853D0CE
:1004800000F0C6FC94F8200004284DD1062102A8F3
:1004900000F0C2FD02A810214170FE21C1700121AF
:1004A00001718C20DFF8445B8DF800004FF480165A
:1004B0002E60012001F005FA0028FAD10022012166
:1004C000684601F04EFA0022062102A801F049FA1E
:1004D000102028600120A07582208DF800002E6079
:1004E000012001F0EEF90028FAD10022012168462E
:1004F00001F037FA4FF4947000220321204401F0F8
:1005000030FA1020286040F67B202061032084F818
:10051000200000F0D3FB00F099FE05B0F0BD40F2E2
:10052000791140A000F09CFD05B0F0BD70B582B01F
:10053000DFF8B86A8DF800000C464FF480101546BD
:100540003060012001F0BDF90028FAD1002201211C
:10055000684601F006FA00222946204601F001FA19
:100560001020306002B070BD5246000070B582B0FD
:1005700015468DF800000C4628001E4604D140F2B6
:10058000B31128A000F06CFD1EB92946204600F0EA
:1005900043FDDFF8586A4FF480103060012001F00D
:1005A00090F90028FAD100220121684601F0D9F91A
:1005B00001222946204601F0D4F91020306002B013
:1005C00070BD20B582B0694600F046FD0020ADF850
:1005D00002001D208DF804004FF48010DFF80C5A43
:1005E0002860012001F06DF90028FAD100220121D4
:1005F00001A801F0B6F901220421684601F0B1F921
:1006000010202860DFF800289DF80200C0F30211D6
:10061000C0F3420050750729B8BF11759DF803005B
:1006200002B020BD524600002DE9F04F054689B0CA
:100630002868DFF8C029DFF8B479C1094006002333
:1006400001F0BAF98046C0208DF80100012168460A
:1006500000F0E2FC4FF480144FF0000A3C600120EF
:1006600001F02FF90028FAD1002201210DF101003B
:1006700001F077F901220121684601F072F910209A
:1006800038609DF80000C0F30210022840F0E382B9
:1006900040F241794846FFF794FF96208DF802001A
:1006A00001208DF803003C60012001F00AF90028C8
:1006B000FAD1002202210DF1020001F052F91020BE
:1006C00038608A208DF8020001208DF803003C601C
:1006D000012001F0F6F80028FAD1002202210DF1E4
:1006E000020001F03EF91020386002AED7208DF8EC
:1006F0000800DB20707098208DF800003C6001201D
:1007000001F0DFF80028FAD100220121684601F04B
:1007100028F90022022102A801F023F910203860F4
:10072000DFF8D41828680818DFF8D018884204D3F6
:1007300040F21B2175A000F093FC2868DFF8C01878
:100740000818DFF8C018884204D34FF407716FA06F
:1007500000F086FC02A9404600F060FC86208DF87F
:1007600000003C60012001F0ACF80028FAD1002222
:100770000121684601F0F5F80022042102A801F0E9
:10078000F0F8102038600DF1090107208DF80800FD
:100790000A2000F056FC97208DF800003C600120F4
:1007A00001F08FF80028FAD100220121684601F0FB
:1007B000D8F80022042102A801F0D3F810203860F4
:1007C00016208DF80800042070708E208DF800002F
:1007D0003C60012001F075F80028FAD100220121C7
:1007E000684601F0BEF80022022102A801F0B9F823
:1007F0001020386004208DF808000720707086F8FB
:1008000002A00120F07095208DF800003C600120CE
:1008100001F057F80028FAD100220121684601F0C2
:10082000A0F80022042102A801F09BF810203860F3
:1008300001A940F6E70000F00FFC64208DF80600E7
:100840000D208DF800003C60012001F03AF80028EE
:10085000FAD100220121684601F083F80022032129
:1008600001A801F07EF81020386040F6AC0801A91C
:10087000404600F0F1FB96208DF806000D208DF823
:1008800000003C60012001F01CF80028FAD1002291
:100890000121684601F065F80022032101A801F05A
:1008A00060F81020386001A9404600F0D5FB0DF13A
:1008B000040B1D20ABF802A08DF800003C60012065
:1008C00000F0FFFF0028FAD100220121684601F064
:1008D00048F80122042101A801F043F810203860F3
:1008E000DFF824859BF80200C0F30211C0F3420038
:1008F00088F815000729B8BF88F814109BF8030082
:10090000962807D040F23F2100A001E052460000A7
:1009100000F0A6FB01A940F29F2000F09DFB012002
:100920008DF806000D208DF800003C60012000F0DD
:10093000C8FF0028FAD100220121684601F011F811
:100940000022032101A801F00CF81020386001A951
:100950004FF4287000F080FB08208DF806000D2071
:100960008DF800003C60012000F0ABFF0028FAD1B8
:1009700000220121684600F0F4FF0022032101A8B3
:1009800000F0EFFF1020386001A940F2A12000F034
:1009900063FBAC208DF806000D208DF800003C6054
:1009A000012000F08EFF0028FAD1002201216846C4
:1009B00000F0D7FF0022032101A800F0D2FF102091
:1009C0003860A879C01F062804D340F24621CAA087
:1009D00000F046FB092102A800F01EFBA8798DF863
:1009E0000800687970702879B0708B208DF800004D
:1009F0003C60012000F065FF0028FAD100220121AF
:100A0000684600F0AEFF0022042102A800F0A9FF12
:100A10001020386004208DF80800A0208DF8000018
:100A20003C60012000F04DFF0028FAD10022012196
:100A3000684600F096FF0022012102A800F091FF15
:100A40001020386001A94FF4E86000F005FB242075
:100A50008DF806000D208DF800003C60012000F0AC
:100A600030FF0028FAD100220121684600F079FF0A
:100A70000022032101A800F074FF1020386001A9B2
:100A8000484600F0E9FAB4208DF806000D208DF8F4
:100A900000003C60012000F014FF0028FAD1002281
:100AA0000121684600F05DFF0022032101A800F04B
:100AB00058FF10203860092102A800F0ADFA02208A
:100AC0008DF80800032070700220B0700320F070D1
:100AD00008208DF800003C60012000F0F2FE0028A4
:100AE000FAD100220121684600F03BFF00220821D4
:100AF00002A800F036FF1020386040F6D80501A9A2
:100B0000284600F0A9FA01AE1D20A6F802A08DF833
:100B100000003C60012000F0D4FE0028FAD1002241
:100B20000121684600F01DFF0122042101A800F008
:100B300018FF10203860B078C0F30211C0F34200F3
:100B400088F815000729B8BF88F81410F67805A9A9
:100B5000284600F081FA46F01E008DF816000D20A0
:100B60008DF800003C60012000F0ABFE0028FAD1B7
:100B700000220121684600F0F4FE0022032105A8AE
:100B800000F0EFFE102038609D208DF8020001205B
:100B90008DF803003C60012000F093FE0028FAD19C
:100BA000002202210DF1020000F0DBFE102038606F
:100BB000062106A800F030FA06A810214170FE2197
:100BC000C170012101718C208DF800003C60012072
:100BD00000F077FE0028FAD100220121684600F0DB
:100BE000C0FE0022062106A800F0BBFE10203860DF
:100BF0000121012088F81600C0208DF80100684608
:100C000000F00AFA3C60012000F05BFE0028FAD1F7
:100C1000002201210DF1010000F0A3FE01220121BB
:100C2000684600F09EFE102038609DF80000C0F37A
:100C3000021002280FD10023032201A91720FFF779
:100C400095FC0DF1050000F002FA40F25F11084238
:100C500008BF4FF0010A504609B0BDE8F08F30B52B
:100C600083B004460621684600F0D6F910208DF8BE
:100C7000010001208DF804008C208DF808008DF80B
:100C800003404FF48010D94D2860012000F019FE78
:100C90000028FAD10022012102A800F062FE002201
:100CA0000621684600F05DFE10202860FE2CD64923
:100CB0000CBF01200020887503B030BD10B5524C28
:100CC00094F82000C1430628618404DA618CC04393
:100CD00080B2814204D040F2C32107A000F0C0F9E5
:100CE00094F82010082000F06EFA618CBDE81040E6
:100CF000092000F068BA0000524600002DE9F041DA
:100D00005FEA010882B0054604D140F2D221B8A0C2
:100D100000F0A6F93C4CB54FA068401CA0604FF411
:100D2000801680208DF8000001208DF801003E60C3
:100D3000012000F0C6FD0028FAD1002202216846F9
:100D400000F00FFE102038600020ADF800008F206A
:100D50008DF802003E60012000F0B3FD0028FAD1BA
:100D6000002201210DF1020000F0FBFD0022022112
:100D7000684600F0F6FD102038604046FFF76FFF30
:100D80000FF28C200088ADF800003E60012000F0DA
:100D900098FD0028FAD100220221684600F0E1FD0A
:100DA00000224146284600F0DCFD102038606946EC
:100DB0004FF6FF7000F050F9022269460220FFF75B
:100DC000B5FB83208DF802003E60012000F079FD24
:100DD0000028FAD1002201210DF1020000F0C1FD2E
:100DE0004FF4947000220321204400F0BAFD10203B
:100DF000386002B040F67B202061042084F8200097
:100E0000BDE8F08120E6D3331809002080530200AA
:100E10002DE9F04383B012208DF80000032101A8D2
:100E200000F0FAF8714C4FF480152560012000F0B5
:100E300048FD0028FAD100220121684600F091FD0A
:100E40000122032101A800F08CFD102020600DF18B
:100E5000050000F0FCF807460DF102014FF6FF70A7
:100E600000F0FAF802220DF102010220FFF75EFB0A
:100E7000654E96F82000032840F0AC80B80740F19A
:100E8000AF8013208DF80000032101A800F0C4F802
:100E90002560012000F015FD0028FAD10022012173
:100EA000684600F05EFD0122032101A800F059FD13
:100EB00010200DF104082060790698F8019098F848
:100EC000020005D53068401C306003B0BDE8F083F7
:100ED000B9F1110F78D3B9F1FF0F75D00FF23412B9
:100EE000136802A9B9F1000F0B608DF8090004D155
:100EF00040F2EF113EA000F0B3F8494606F1280099
:100F000000F08AF82560012000F0DBFC0028FAD10F
:100F10000022032102A800F024FD0122494606F127
:100F2000280000F01EFD10202060022114208DF802
:100F3000000001A800F070F82560012000F0C1FC5D
:100F40000028FAD100220121684600F00AFD0122A2
:100F5000022101A800F005FD1020206049467068BC
:100F6000401C706098F9010000EBD070C2051216A9
:100F700006F1280000F0CEFD90B396F8200004287A
:100F800004D04FF442711AA000F06AF896F82000DD
:100F9000C1430628718404DA718CC04380B2814257
:100FA00004D040F2C32112A000F05AF896F82010A5
:100FB000082000F008F9718C092000F004F900F015
:100FC00045F903B0BDE8F0837068401C706003B061
:100FD000BDE8F083042803D1F80758BFFFF71EF9D6
:100FE00003B0BDE8F0830849C87570471008014098
:100FF000524600000048E801802E0FF7819E4730DE
:1010000040AA8FCCC1CF6A0018090020040000005C
:101010000E0000001E00000000F00CBE020E0A7060
:10102000C870020C4A70020A8A7070478278C178D0
:10103000120442EA01614278007841EA0221084341
:101040007047020C0A708870020A4A707047017873
:10105000407840EA01207047020A0A7048707047E1
:1010600072B6DFF8A0050068C00700D500BEFEE735
:1010700070B5DFF89445DFF8941586B0D4F8F80C15
:101080000840DFF88C15884206D072B6D4F8E80D17
:10109000C00700D500BEFEE7DFF87805416841F0E3
:1010A000C0514160DFF870150A6842F480720A602E
:1010B000216841F002012160D4F81C1D41F4E021B7
:1010C000C4F81C1DD4F80C1D41F01001C4F80C1D0F
:1010D000D4F8E81DC9070CD5DFF840150A6842F0BE
:1010E00001020A6040F2F172D4F8F41D1143C4F811
:1010F000F41D01A900220023002500266CC1D0F8B0
:10110000E81FDFF81C5541F01001C0F8E81F4168E6
:1011100041F080514160416801F080510091009997
:10112000016841F001010160016801F001010091D5
:101130000099816841F001018160DFF8E8040560F1
:10114000012001904FF48070029001A800F076FD1C
:1011500030B172B6D4F8E80DC00700D500BEFEE786
:1011600000F0A0FEA84206D072B6D4F8E80DC00781
:1011700000D500BEFEE7DFF8B01401200860DFF8FC
:10118000AC14DFF8AC040160466000F09FFE30B1A3
:1011900072B6D4F8E80DC00700D500BEFEE706B071
:1011A00070BD00000A2807D372B6DFF85804006843
:1011B000C00700D500BEFEE7DFF8781401EB800021
:1011C000006880B27047DFF86C2402EB8000016099
:1011D00070470000DFF82C5404462868C00700D58B
:1011E00000BE2CB972B62868C00700D500BEFEE765
:1011F000DFF83C64304600F011FF28B172B6286871
:10120000C00700D500BEFEE7304600F023FF0A2CE1
:1012100028BF0A3C032C34BF632104EB4411091896
:10122000304600F028FF002872B604D02868C007B6
:1012300000D500BEFEE7052000F075FA00F069FF5A
:1012400072B62868C00700D500BEFEE7DFF8B443D9
:101250002068C00700D500BE72B6062000F063FA11
:101260004FF4807000F040FF00F053FF72B620682A
:10127000C00700D500BEFEE772B6DFF8880300683D
:10128000C00700D500BEFEE772B6DFF8780300683D
:10129000C00700D500BEFEE7DFF89C030278DAB98C
:1012A000DFF89813DFF870330A6842F080520A6062
:1012B0008A68920048BF042204D45A68D2074CBFFF
:1012C00003220222D1F808C04CF0807CC1F808C08B
:1012D000196841F00C011960027000787047000035
:1012E00072B672B6DFF81C030068C00700D500BEF6
:1012F000FEE7DFF84C030168C90744BF0121016024
:101300007047000072B6BF480068C00700D500BE35
:10131000FEE7000072B6BB480068C00700D500BEFB
:10132000FEE7000072B6B7480068C00700D500BEEF
:10133000FEE7000072B6B3480068C00700D500BEE3
:10134000FEE7000072B6AF480068C00700D500BED7
:10135000FEE7000072B6AB480068C00700D500BECB
:10136000FEE7000072B6A7480068C00700D500BEBF
:10137000FEE7000072B6A3480068C00700D500BEB3
:10138000FEE7000072B69F480068C00700D500BEA7
:10139000FEE7000072B69B480068C00700D500BE9B
:1013A000FEE7000072B697480068C00700D500BE8F
:1013B000FEE7000072B693480068C00700D500BE83
:1013C000FEE7000072B68F480068C00700D500BE77
:1013D000FEE7000072B68B480068C00700D500BE6B
:1013E000FEE7000072B687480068C00700D500BE5F
:1013F000FEE7000072B683480068C00700D500BE53
:10140000FEE7000072B67F480068C00700D500BE46
:10141000FEE7000072B67B480068C00700D500BE3A
:10142000FEE7000072B677480068C00700D500BE2E
:10143000FEE7000072B673480068C00700D500BE22
:10144000FEE7000072B66F480068C00700D500BE16
:10145000FEE7000072B66B480068C00700D500BE0A
:10146000FEE7000072B667480068C00700D500BEFE
:10147000FEE7000072B663480068C00700D500BEF2
:10148000FEE7000072B65F480068C00700D500BEE6
:10149000FEE7000072B65B480068C00700D500BEDA
:1014A000FEE7000072B657480068C00700D500BECE
:1014B000FEE7000072B653480068C00700D500BEC2
:1014C000FEE7000072B64F480068C00700D500BEB6
:1014D000FEE7000072B64B480068C00700D500BEAA
:1014E000FEE7000072B647480068C00700D500BE9E
:1014F000FEE7000072B643480068C00700D500BE92
:10150000FEE7000072B63F480068C00700D500BE85
:10151000FEE7000072B63B480068C00700D500BE79
:10152000FEE7000072B637480068C00700D500BE6D
:10153000FEE7000072B633480068C00700D500BE61
:10154000FEE7000072B62F480068C00700D500BE55
:10155000FEE7000072B62B480068C00700D500BE49
:10156000FEE7000072B627480068C00700D500BE3D
:10157000FEE7000072B623480068C00700D500BE31
:10158000FEE7000072B61F480068C00700D500BE25
:10159000FEE7000072B61B480068C00700D500BE19
:1015A000FEE7000072B617480068C00700D500BE0D
:1015B000FEE7000072B613480068C00700D500BE01
:1015C000FEE7000072B60F480068C00700D500BEF5
:1015D000FEE7000072B60B480068C00700D500BEE9
:1015E000FEE7000072B607480068C00700D500BEDD
:1015F000FEE7000072B603480068C00700D500BED1
:10160000FEE70000F0ED00E008E000E0F0FFFF0F73
:1016100030C21F011810024000700040042004E096
:1016200000127A00100100203C04424200280040D1
:10163000580A0020046C0040700A00201C10024070
:10164000140401402DE9F04F8548864C81B00168B3
:1016500041F01D010160D4F8000CB0F1443F04D00A
:101660003C210FF2A020FFF7FBFC20680FF2982A24
:101670000FF2AC280FF28C2920F0E06040F00070EF
:10168000206056460020C4F8080C4FF00F0BD4F829
:10169000000CC4F8FC0B002401E0022C05D2727887
:1016A0003178012000F060F833E0E5B2A81E05288B
:1016B00003D3BC214846FFF7D3FC05EB45000AEBFA
:1016C000000101208A78002A0A78497858F82220F7
:1016D00008BF1031884010613078777858F8205072
:1016E000032803D36E214846FFF7BAFC102F17D307
:1016F0006F214846FFF7B4FC083F2D1D3F06B80D8B
:1017000029680BFA00F29143022202FA00F0084322
:101710002860641CF61C072CBFD301B0BDE8F08F15
:10172000082FE9D2EAE750494FF4806203000A60CB
:1017300019D010F003034FF0806C04D00A605B1ED8
:10174000C1F800C0FAD180080DD00A60C1F800C00D
:101750000A60C1F800C00A60C1F800C00A60401EFB
:10176000C1F800C0F1D17047F0B505460FF2B010D6
:1017700081B00C4650F82170032C164604D36E211C
:101780000FF28010FFF76CFC102E19D36F210FF2AF
:101790007410FFF765FCA6F10801381D0906890DD4
:1017A0000F2303FA01F2D243062D50D8DFE805F0EB
:1017B0001C0D4F042125320003681A40022323E048
:1017C000082EE8D231463846E8E703681A4002237B
:1017D000891C03FA01F1114301600121F868B1404D
:1017E0000843F86001B0F0BD01681140016001B02C
:1017F000F0BD03681A40012302E003681A40022387
:101800008C1CA3401A43032303FA01F11143016026
:1018100001B0F0BDB20002F00C02934004FA02F2F3
:10182000124826F00301014401200D6825EA030354
:101830001A430A60B0400E490A6802430A60CA6847
:101840000243CA608A681043886001B0F0BD01B0ED
:10185000BDE8F040B3210FF2AC00FFF701BC00007F
:101860001810024004000140100C01400800014023
:101870000004014030B50446A01E052881B00D4685
:1018800004D3BC210FF27C00FFF7EAFB0FF27801D2
:1018900004EB44021144681E80418A78C00F0AB9E3
:1018A00080F00100012300280FF2740208784978C3
:1018B00052F8200008BF103103FA01F1016101B0B4
:1018C00030BD10B50446022C04D3CF210FF23400F2
:1018D000FFF7C6FB0FF2300004EB440108440FF29F
:1018E0004001027851F8221089684278D14082780C
:1018F00001F00101501E81F00101804181EAD070A8
:1019000010BD000044494F00000000000300020D1C
:1019100001010A00010B00000401000201000000A7
:1019200000080140000C01400010014000B51F48B4
:1019300081B0016841F48051016005220021052039
:10194000FFF712FF072200210520FFF70DFF1848BF
:101950004FF45171016001B05DF804EB002100F01B
:10196000EFBB30B40C0042F650531CD0114C25791B
:101970000578257100E05B1E2568ED0701D4002B7A
:10198000F9D1012A04BF25790570401C491E04D0F5
:10199000002BECD130BC00207047581E804130BC79
:1019A000C043C00F704730BC012070471810024080
:1019B00000300140083001401B4213D1094236D1AA
:1019C0002AB18446B0FBF2F002FB10C2704700F06F
:1019D000DBBBFCD30022002370470B000200002178
:1019E00000207047904271EB030CF6D370B5B1FA4A
:1019F00081F4B3FA83F52C1BA340C4F1200532FA1D
:101A000005F63343A2405FF00046E64002E05B0883
:101A10005FEA3202841A71EB030524BF204629468F
:101A20007641F4D302000B003000002170BD012A82
:101A3000CFD970B5140C20D0B1FA81F4B2FA82F586
:101A4000C4F120046419B4F12006D6D3B2405FF08B
:101A50000044F440002502E052085FEA3303C61A4E
:101A600071EB020E24BF3046714664416D41F3D3E1
:101A700002000B002000290070BD0C46B1FBF2F102
:101A800002FB11452D0445EA1045B5FBF2F402FBBB
:101A9000145580B240EA0545B5FBF2F002FB105246
:101AA00040EA044070BD000030B581B00020FFF76F
:101AB00079FB04460120FFF775FB5C4D40EA0440CA
:101AC000A8600220FFF76EFB04460320FFF76AFBC5
:101AD00040EA0440E8600420FFF764FB0446052068
:101AE000FFF760FB40EA0440286101B03C20286019
:101AF00030BD4E4800B5016881B001B1491E01609A
:101B0000080004D15C210FF22810FFF7A9FA012088
:101B100001B000BD2DE9F24F82B00446FFF786FA0E
:101B20008246201DFFF782FA064604F10800FFF7FF
:101B30007DFA0746207B00F0F70808F007054FEA1A
:101B4000581B4FEA18105D458DF800004FF0000952
:101B5000A8BFAB4645B16D1EEDB2082D04D3C02120
:101B60000FF2CC00FFF77CFABBF1080F04D3C121C0
:101B70000FF2BC00FFF774FA9DF80800112804D298
:101B8000C2210FF2AC00FFF76BFA002E1CBF16F15A
:101B9000010F564505D0BAF101008041C043C00F86
:101BA00000E000209DF8001001F0010181F001012A
:101BB000084218BF002F12D017F1010F18BF002DD7
:101BC0000DD008F0F800284320734FF001091748A2
:101BD0009DF80810C7602046FFF790F801E0134811
:101BE0008760124CA0682661010C0020FFF7EBFA19
:101BF000A16889B20120FFF7E6FAE068010C022033
:101C0000FFF7E1FAE16889B20320FFF7DCFA206907
:101C1000010C0420FFF7D7FA216989B20520FFF7EC
:101C2000D2FA484603B0BDE8F08F0000440A002015
:101C300041505000002200F0A9BA00002DE9F04107
:101C4000044682B0207810F0130F04D16D210FF2FA
:101C50004C20FFF705FA2078C00768D56068002699
:101C6000002818BFB0F5807F0AD0B0F5007F18BFFC
:101C7000B0F5407F04D075210FF22020FFF7F0F976
:101C80007B4DA869C00009D4A86940F08050A861C4
:101C90000126A86900F0805000900098754F3868C0
:101CA000C00513D4386840F48070386000F09EFAA4
:101CB00080463868C00509D400F098FAA0EB080007
:101CC0006528F6D3032002B0BDE8F081E86910F47E
:101CD00040701EBF616801F4407188421CD06649A3
:101CE000E86901220A6020F4407000220A60E8617D
:101CF000C00711D500F07AFA804641F28937E869C9
:101D0000800709D400F072FAA0EB0800B842F6D3BD
:101D1000032002B0BDE8F081E869616820F44070FA
:101D20000843E8611EB1A86920F08050A8612078BE
:101D3000800717D5A068002818BFB0F5804F0AD0DB
:101D4000B0F5004F18BFB0F5404F04D0BA210FF2E4
:101D50004C10FFF785F9464D2868A16820F44040F3
:101D6000084328602078C00612D5E068B0F5800FDF
:101D700018BF002805D04FF48B710FF22010FFF729
:101D80006FF93B4D2868E16820F480000843286023
:101D9000002002B0BDE8F08170B50FF2EC0186B012
:101DA0006CC9044601A86CC00FF2EC000088ADF8C5
:101DB0000000002514F0130F05D140F297110FF227
:101DC000DC00FFF74DF9012C22D0022C43D0102C5F
:101DD0004BD12A4841680268D20146D501AAC1F315
:101DE0008343C903D25C0AD54168254BC1F3404106
:101DF0001DF80110B3FBF1F102FB01F502E02149EE
:101E000001FB02F5406840022FD4680003212AE05C
:101E10001A48016A40F202320A40B2F5817F08BFD7
:101E20004FF4004521D001F44072B2F5007F05D196
:101E3000426A920748BF49F6404516D401F4407102
:101E4000B1F5407F11D1006880030ED54FF22445D3
:101E5000284606B070BD00F028F808494968C1F36B
:101E60008131491C4900B0FBF1F5284606B070BD30
:101E70000410024000700040400442420010024042
:101E800000127A0000093D00020304050607080954
:101E90000A0B0C0D0E0F1010010200004C524343B0
:101EA000450000000648006870470548054A00687C
:101EB00012680549C2F3C222895CC840704700001D
:101EC00010010020041002406826000870B50400CC
:101ED00045D02068DFF83811884205D04FF48E7164
:101EE000DFF83001FFF7BCF8A068002818BF802891
:101EF0000BD0B0F5807F18BFB0F5407F05D040F221
:101F00001D11DFF81001FFF7ABF86068B0F5801F16
:101F100008D310F1010F05D04FF48F71DFF8F400F2
:101F2000FFF79EF8607C18B920742046C046C04672
:101F30000220607440F2E9352068416821F0080110
:101F4000416000F053F9064620684068000708D455
:101F500000F04CF9801BA842F6D3042060740120E5
:101F600070BD00F043F9064620684168890605D433
:101F700000F03CF9801BA842F6D3EEE7416841F03F
:101F80001001416020684168C908C9004160DFF85C
:101F90008800A16819B14168490849004160016899
:101FA000A26821F4607111430160606810F1010FB3
:101FB00005D10120FFF7F0FE0028CED0401E216899
:101FC0008A681209120142EA10428A6080B22168CE
:101FD000CA68120C40EA0240C8602068416821F0DB
:101FE0001001416000F002F9064620684068800652
:101FF00005D400F0FBF8801BA842F6D3ADE7002023
:10200000E07301206073A0736074002070BD000055
:1020100000280040E02000082C6C004070B504004F
:1020200001D1012070BD2068416821F008014160A4
:1020300040F2E93600F0DAF805462068406800070B
:1020400006D400F0D3F8401BB042F6D3032070BD95
:10205000002070BD00688169C269836989B29BB242
:10206000994204D0C06980B240EA0340704792B2FE
:1020700042EA014070472DE9F04104460F4600F066
:10208000B5F80025064640F2E9382068416889061F
:1020900005D400F0ABF8801B4045F6D31BE0416847
:1020A00041F010014160390C0162B9B241624168EE
:1020B000C908C9004160416821F01001416000F089
:1020C00095F8074620684068800605D400F08EF831
:1020D000C01B4045F6D301252846BDE8F08100002D
:1020E0004C5254430000000010B50446B4F5807F04
:1020F00005D040F283110FF24000FEF7B1FF94FAD1
:10210000A4F0B0FA80F00A4901EB800001210160DF
:1021100010BD0648016841F00201016005480168F0
:1021200041F00401016030BF7047000000700040C2
:1021300080000E4210ED00E04C50575200000000AD
:10214000F0B50F4D0446E8680E4600EB400105EB84
:102150008101102881B001F1100704D385210FF20D
:102160002400FEF77DFFF0433C6078602168084062
:10217000B86001B0E868401CE860F0BD00000000F5
:1021800030000020534C460070470000401810F00B
:10219000030308D0C91A1FD3DB0748BF00F8012D7D
:1021A00028BF20F8022D130030B41446154610390C
:1021B00028BF20E93C00FAD8490728BF20E90C00D5
:1021C00048BF40F8042D890028BF20F8022D48BFE1
:1021D00000F8012D30BC7047C91818BF00F8012D58
:1021E000CB0728BF00F8012D704700000148406868
:1021F000704700BF040100202DE9F04F854C86494F
:1022000081B0E06A8548401A40F2FF31884204D22A
:102210005A210FF24420FEF723FF002060600FF2E6
:102220003C28606808EBC00104EBC002C9889182B9
:10223000401C032860601DD208EBC00104EBC00203
:10224000C9889182401C0328606013D208EBC0014A
:1022500004EBC002C9889182401C0328606009D247
:1022600008EBC00104EBC002C9889182401C03281E
:102270006060D6D36A49CD20087000210420FFF7A2
:10228000F9FA122084F8280001206649087041F606
:102290003F7165484160F02180F8131D0021816085
:1022A00007210160EFF3108020B970210FF2A81010
:1022B000FEF7D6FE62B6DFF874910FF29C1A4FE07B
:1022C0002868401C4845286003D3AB215046FEF7E0
:1022D000C7FEB088A880EFF3108018B1AE21504639
:1022E000FEF7BEFE72B62089C01B62B6EA8881B2D4
:1022F000914238BF1146EFF30880E98000788345AA
:1023000002BFE068EFF30881884203D0BA2150464B
:10231000FEF7A6FEA888401EA880B188F28880B289
:102320005118884203DBBE215046FEF799FE6068D3
:10233000401C032860602BD372B6206821890818DE
:1023400020600020208162B694F82800122803D073
:10235000C7215046FEF784FE00210420FFF78AFAC9
:10236000208948B301210420FFF784FA606803281C
:1023700003D08E215046FEF773FEEFF3088090F8ED
:1023800000B0E168EFF308800843E060002060607F
:10239000606804EBC00101F1100508EBC006A888D5
:1023A0000028B7D172B6278962B630688047002806
:1023B00086D0002028608CE730BF00BF00BF00BF80
:1023C000CEE700B5164881B00078CD2809D1EFF3EB
:1023D00008801749884222BF1648EFF308818842D7
:1023E00004D2E9210FF27000FEF73AFE0948018994
:1023F000491C01810089152804D3EC210FF25800F3
:10240000FEF72EFE0C490020086001B05DF804EBD9
:1024100000F030B80000002018010020180900204A
:10242000180100200401002010E000E0E093040007
:1024300018010020180900206C0A002080B540F225
:1024400017110FF21400FEF70BFE002801D0012037
:1024500000E00020C0B201BD4F530000F7010008AA
:1024600001000000F31A000864000000B324000813
:102470005D000000024841680278511841607047D1
:10248000040100201648016841F48071016045F2A2
:102490005551144801600321416040F2E1618160BF
:1024A000002101604CF6CC4101604AF6AA2101608E
:1024B000704710B50B4C4AF6AA20206040F2E1614B
:1024C000A068884204D050210FF21C00FEF7C8FD1E
:1024D000E06800F00300401E8041C00F10BD000006
:1024E000042004E000300040574454000E480F4AD6
:1024F000016841F0010101604168114041600C4AEE
:10250000016811400160016821F480210160416887
:1025100021F4FE0141604FF41F0181604FF0006023
:102520000449086070470000001002400000FFF8F6
:10253000FFFFF6FE08ED00E019E050F8041BCB07A2
:1025400044BFA9F101035918121F0023042A41F8BE
:10255000043BF9D25FEA827C0B4604D54FF0000CB5
:10256000A1F800C09B1CD10744BF0021197050F88E
:10257000042B002AE1D1704700B581B072B6FFF795
:1025800081FFFEF775FDFFF75DF8FEF785FEFFF7AB
:10259000CAF8FFF7CBF9FDF7A9FD0120FEF723FDEF
:1025A000FFF782FAFFF728FE4FF0FF3001B000BDC1
:1025B00030B5016842688468014401EB5203D207D8
:1025C00048BF4C44994201D10C3030BD11F9012B68
:1025D00011F8015B002A04F8015B02D5521CF9D105
:1025E000F0E7521EF4D5EDE710B5074979441831EC
:1025F000064C7C44163404E00A68081D11448847E0
:102600000146A142F8D110BD0800000024000000DE
:1026100029FFFFFF5C0100001809002000000000F6
:1026200091FFFFFF56000000460000000000002060
:102630000120C046002801D0FFF7D6FF0020AFF3ED
:102640000080FFF799FFFEF717FE00000148804762
:1026500001480047ED2400085D260008AFF3008024
:10266000AFF30080FFF7E4FF000000000102030465
:10267000FEF7B8BFFEE7FFF7FEBFD4000FCA6457EE
:10268000CB00080140000C0140001001408100B760
:0D269000000001F9000010FC0002A24A0445
:040000050800265D6C
:00000001FF
